:100000000C9465000C948D000C948D000C948D0064
:100010000C948D000C948D000C948D000C948D002C
:100020000C948D000C948D000C948D000C948D001C
:100030000C948D000C948D000C948D000C948D000C
:100040000C94BA0C0C948D000C94B90F0C94EB0F1B
:100050000C948D000C948D000C948D000C948D00EC
:100060000C94130A0C948D0000000008000201009B
:100070000003040700000000000000000102040863
:100080001020408001020408102001020408102002
:10009000040404040404040402020202020203032E
:1000A00003030303000000002300260029000000D2
:1000B0000000250028002B0000000000240027007D
:1000C0002A00BB08C8091B10070911241FBECFEF67
:1000D000D8E0DEBFCDBF12E0A0E0B1E0E4E4FCE296
:1000E00002C005900D92A633B107D9F723E0A6E32D
:1000F000B2E001C01D92A63FB207E1F710E0C8ECE4
:10010000D0E004C02297FE010E948C13C23CD107AC
:10011000C9F70E9411130C9415160C940000FC01F1
:10012000608381E0818384E0828314821382089556
:100130008CE892E00C94BE09FC01748363830895FB
:100140009C018091B9008E7F8093B9008091B900A5
:100150008D7F8093B90040E050E060EA7FE080E06E
:1001600090E00E945713822F203130F030E0205170
:10017000310935952795822F8093B800089584E63C
:1001800090E00E94A000ECEBF0E08081846080832E
:1001900008953C9A84EA8093BC0008958BE590E032
:1001A0002091BC0027FD02C00197D1F70895882354
:1001B00029F08091BC008F70806C04C08091BC00DD
:1001C0008F7080688093BC000895009759F02AE5ED
:1001D0000000000000000000000000002150C1F7F6
:1001E0000197F3CF0895CF93C82F81E090E00E944C
:1001F000E5003C9AC093BB0084E88093BC00CF919B
:1002000008959C01CA0161307105C9F464E070E091
:100210000E9421138130910551F01CF4892B69F063
:1002200008958230910529F0039729F0089560E739
:10023000A3C061E7A1C062E79FC063E79DC06230D1
:10024000710599F463E070E00E94211381309105FB
:1002500041F08230910539F0892B09F090C069E6B0
:100260008BC067E689C068E687C06530710599F480
:1002700063E070E00E9421138130910541F08230EB
:10028000910539F0892B09F07AC066E775C064E7FB
:1002900073C065E771C06630710599F463E070E082
:1002A0000E9421138130910541F08230910539F08F
:1002B000892B09F064C06CE65FC06AE65DC06BE63E
:1002C0005BC06730710599F463E070E00E94211310
:1002D0008130910541F08230910539F0892B09F088
:1002E0004EC063E649C061E647C062E645C069307A
:1002F0007105C9F464E070E00E942113813091051A
:1003000051F01CF4892B69F008958230910529F091
:10031000039729F0089567E72FC068E72DC069E7C4
:100320002BC06AE729C06A30710591F463E070E080
:100330000E9421138130910539F08230910531F00E
:10034000892BE9F46FE618C06DE616C06EE614C09E
:100350006B307105A1F463E070E00E9421138130DD
:10036000910539F08230910531F0892B41F466E630
:1003700003C064E601C065E6C9010C94FA11089552
:100380001F93CF93DF93162FFC01C481D581BE014B
:10039000615071096431710530F40E940C136C2FA7
:1003A0006150412F13C06832710538F40E940C135C
:1003B00041E0410F6C2F655109C06C33710590F419
:1003C0000E940C1342E0410F6C2F695286E692E0C6
:1003D0000E94DC0B60E286E692E0DF91CF911F91F4
:1003E0000C94AC10DF91CF911F9108958F929F9242
:1003F000AF92BF92CF92DF92EF92FF920F931F9333
:10040000CF93DF9300D000D000D0CDB7DEB75C0132
:100410008B017A0124E030E0241B350BFB01C48002
:10042000D580F5E1CF16D1047CF4121613060CF03A
:10043000A1C060E086E692E00E94DC0BB80186E68F
:1004400092E00E949C103AC089E2C816D104DCF503
:10045000223031050CF48EC060E086E692E00E9406
:10046000DC0B812C912CB401C8010E94CC12FC0140
:10047000608186E692E00E94AC10FFEF8F1A9F0A1F
:1004800084E18816910479F741E04E0D60E086E63C
:1004900092E00E94DC0B34E1E32EF12CB701C8019D
:1004A0000E94CC12FC01608186E692E00E94AC10B2
:1004B000FFEFEF1AFF0AEC14FD0484F3B801C50145
:1004C0000E94B31070C08DE3C816D1040CF052C066
:1004D000233031050CF44EC060E086E692E00E94C5
:1004E000DC0B812C912CB401C8010E94CC12FC01C0
:1004F000608186E692E00E94AC10FFEF8F1A9F0A9F
:1005000084E18816910479F741E04E0D60E086E6BB
:1005100092E00E94DC0B24E1822E912CB401C801F0
:100520000E94CC12FC01608186E692E00E94AC1031
:10053000FFEF8F1A9F0A88E28816910479F742E04C
:100540004E0D60E086E692E00E94DC0B98E2E92E18
:10055000F12CB701C8010E94CC12FC01608186E633
:1005600092E00E94AC10FFEFEF1AFF0AEC14FD04BA
:1005700084F3A4CF84E1829FB001839F700D112486
:10058000C8010E940C13B801CE0101960E94A91166
:10059000A701BE016F5F7F4FC5010E94F601CE012A
:1005A00001960E94D810C50126960FB6F894DEBFBA
:1005B0000FBECDBFDF91CF911F910F91FF90EF90B4
:1005C000DF90CF90BF90AF909F908F900895EF9263
:1005D000FF920F931F93CF93DF93EC010C811D814A
:1005E00040E060E086E692E0053111056CF40E947F
:1005F000DC0BBE0186E692E0DF91CF911F910F9157
:10060000FF90EF900C949C10093211057CF50E942C
:10061000DC0BE12CF12CB701CE010E94CC12FC01C5
:10062000608186E692E00E94AC10FFEFEF1AFF0AAD
:1006300084E1E816F10479F741E060E086E692E0B3
:100640000E94DC0B64E1E62EF12CB701CE010E9482
:10065000CC12FC01608186E692E00E94AC10FFEFB4
:10066000EF1AFF0AE016F10681F79AC00D33110563
:100670000CF049C00E94DC0BE12CF12CB701CE013B
:100680000E94CC12FC01608186E692E00E94AC10D0
:10069000FFEFEF1AFF0A84E1E816F10479F741E071
:1006A00060E086E692E00E94DC0B54E1E52EF12C3E
:1006B000B701CE010E94CC12FC01608186E692E077
:1006C0000E94AC10FFEFEF1AFF0A88E2E816F1046F
:1006D00079F742E060E086E692E00E94DC0B48E2B7
:1006E000E42EF12CB701CE010E94CC12FC016081F6
:1006F00086E692E00E94AC10FFEFEF1AFF0AE016C8
:10070000F10681F74DC00E94DC0B00E010E0B8015B
:10071000CE010E94CC12FC01608186E692E00E942C
:10072000AC100F5F1F4F0431110589F741E060E005
:1007300086E692E00E94DC0B04E110E0B801CE01F5
:100740000E94CC12FC01608186E692E00E94AC100F
:100750000F5F1F4F0832110589F742E060E086E61F
:1007600092E00E94DC0B08E210E0B801CE010E948A
:10077000CC12FC01608186E692E00E94AC100F5F13
:100780001F4F0733110589F76AE071E086E692E0B2
:10079000DF91CF911F910F91FF90EF900C94AA10D1
:1007A000DF91CF911F910F91FF90EF9008950F93DC
:1007B0001F93CF93DF93CDB7DEB72C970FB6F89486
:1007C000DEBF0FBECDBF8C01BC01CE0107960E94DB
:1007D000A9116EE071E0CE0107960E946F12BC0174
:1007E000CE0101960E94A911CE0101960E94E70256
:1007F000CE0101960E94D810CE0107960E94D81013
:10080000F801848195818431910528F0889730F42E
:1008100082E090E005C081E090E002C083E090E0DB
:100820002C960FB6F894DEBF0FBECDBFDF91CF91EF
:100830001F910F9108951F93CF93DF931F92CDB710
:10084000DEB7182F0E94C9000E94CE0084EB0E94E0
:10085000F3000E94CE00812F0E94F3000E94CE0080
:100860000E94C90085EB0E94F3000E94CE008FEF2A
:100870000E94D7000E94CE008091BB0089830E9415
:10088000CE00ECEBF0E094E9908390819B7F908325
:1008900090819460908389810F90DF91CF911F9117
:1008A00008951F93CF93DF931F92CDB7DEB7182F14
:1008B00069830E94C9000E94CE0084EB0E94F3006D
:1008C0000E94CE00812F0E94F3000E94CE00698119
:1008D000862F0E94F3000E94CE0084E98093BC0022
:1008E0000F90DF91CF911F91089561E08BE20E94FC
:1008F000510461E08CE20E94510460E08DE20E94AC
:10090000510460E08EE20E94510461E08FE20E9497
:10091000510461E080E30E9451046FEF81E30E9483
:10092000510462E082E30E9451046FE081E40E947E
:1009300051046AE082E40E9451046FE083E40E9463
:1009400051046AE084E40E9451046FE085E40E944F
:1009500051046AE086E40E9451046FE087E40E943B
:1009600051046AE088E40E9451046FE089E40E9427
:1009700051046AE08AE40E9451046FE08BE40E9413
:1009800051046AE08CE40E9451046FE08DE40E94FF
:1009900051046AE08EE40E9451046FE08FE40E94EB
:1009A00051046AE080E50E9451046FE081E50E94F5
:1009B00051046AE082E50E9451046FE083E50E94E1
:1009C00051046AE084E50E9451046FE085E50E94CD
:1009D00051046AE086E50E9451046FE087E50E94B9
:1009E00051046AE088E50E94510464E08DE50E94AC
:1009F00051046CE08EE50C945104CF93DF93C8E072
:100A0000D1E060E088810E94DC0D61E088810E9475
:100A1000150EC6E0D1E061E088810E94DC0D61E046
:100A200088810E94150E26E040E855E260E070E003
:100A300084E593E00E94570F87B1836187B980E313
:100A400088B90E94BF0020E044E064E186E692E0BD
:100A50000E94F60B64E670E080E090E00E94330DA7
:100A60000E94750486E692E00E94D50B60E072E079
:100A700087E892E00E949C0060E072E082E892E0E9
:100A80000E949C001092810210928002DF91CF910F
:100A90000895809108010E944B0E21E0892B09F4F2
:100AA00020E0822F08954F925F926F927F928F92F3
:100AB0009F92AF92BF92CF92DF92EF92FF920F93ED
:100AC0001F93CF93DF93CDB7DEB72C970FB6F89473
:100AD000DEBF0FBECDBF2C015B014A0139010E9470
:100AE0000101B201CE0107960E94A911A301BE0126
:100AF000695F7F4FCE0101960E94F601CE010196FB
:100B00000E94D810CE0107960E94D8100E94040DB2
:100B10006B017C0101E010E00E944905882311F17E
:100B20000E94040D6C157D058E059F0561F00E94E5
:100B3000040D6C197D098E099F09603B7440810585
:100B4000910550F30FC00E94040DA7019601261BCA
:100B5000370B480B590BDA01C901803B9440A105C2
:100B6000B105D0F281E00E941B0410927E028093B6
:100B70007F0280E00E941B0420917E0230917F0260
:100B8000282B30937F0220937E020E94040D6C1963
:100B90007D098E099F09613B74408105910508F02C
:100BA0004DC081E00E941B0410927E0280937F0260
:100BB00080E00E941B0420917E0230917F02282B4E
:100BC00030937F0220937E0280E090E040E050E08E
:100BD000B801082E02C0660F771F0A94E2F762235D
:100BE0007323672B11F04F5F5F4F01968C30910597
:100BF00079F74130510509F08FCF20FD05C021FD67
:100C000006C00FEF1FEF05C000E010E002C001E0DA
:100C100010E022FD16C024FD17C025FD18C026FDDA
:100C200019C027FD1AC030FD1BC031FD1CC032FDAC
:100C30001DC033FF1DC00BE010E01AC08FEF9FEF07
:100C400028C002E010E014C004E010E011C005E08C
:100C500010E00EC006E010E00BC007E010E008C096
:100C600008E010E005C009E010E002C00AE010E072
:100C70000A151B0569F4B301C2010E94C001A40159
:100C80004F5F5F4F9301B801C2010E94530501C03D
:100C9000C8012C960FB6F894DEBF0FBECDBFDF9112
:100CA000CF911F910F91FF90EF90DF90CF90BF9069
:100CB000AF909F908F907F906F905F904F9008952E
:100CC0006F927F928F929F92AF92BF92CF92DF925C
:100CD000EF92FF920F931F93CF93DF93CDB7DEB7C1
:100CE0002D970FB6F894DEBF0FBECDBF5C01762EF8
:100CF000672E62E371E00E944611472D60E086E6B0
:100D000092E00E94DC0B0FEF1FEF88248394912C5C
:100D10000E94040D6B017C010E944905882329F083
:100D20000F3F4FEF140709F4F0C061E08091060116
:100D30000E94150E81E00E941B0410927E02809397
:100D40007F0280E00E941B0420917E0230917F028E
:100D5000282B30937F0220937E0280E090E040E0D9
:100D600050E0B401082E02C0660F771F0A94E2F724
:100D700062237323672B11F04F5F5F4F01968C3016
:100D8000910579F74130510561F520FD03C001154A
:100D9000110531F4672D762DC5010E94C00121C0D7
:100DA00021FD03C00130110539F4272D362D41E016
:100DB00050E061E070E064C022FD03C00230110524
:100DC00039F4272D362D41E050E062E070E058C044
:100DD00024FD03C00430110539F460E2C5010E940E
:100DE000FA110FEF1FEF55C025FD03C005301105A7
:100DF00039F4272D362D41E050E065E070E040C029
:100E000026FD03C00630110539F4272D362D41E0AB
:100E100050E066E070E034C027FD03C007301105E4
:100E200039F4272D362D41E050E067E070E028C00E
:100E300030FD2BC00830110541F131FD03C00930F0
:100E4000110539F4272D362D41E050E069E070E0BE
:100E500017C032FD03C00A30110539F4272D362D95
:100E600041E050E06AE070E00BC033FD03C00B309E
:100E7000110579F4272D362D41E050E06BE070E04C
:100E8000C5010E9453058C0104C00FEF1FEF21E044
:100E900001C020E0B501CE0107962D870E94A9115F
:100EA000472D562DBE01695F7F4FCE0101960E94EE
:100EB000F601BE016F5F7F4FC5010E94B211CE01E6
:100EC00001960E94D810CE0107960E94D8102D8559
:100ED000222309F41DCF86E692E00E94D50BC501BE
:100EE0002D960FB6F894DEBF0FBECDBFDF91CF9128
:100EF0001F910F91FF90EF90DF90CF90BF90AF9038
:100F00009F908F907F906F9008950E94040D6C15B4
:100F10007D058E059F0561F00E94040D6C197D0909
:100F20008E099F09613375478105910580F411C0D1
:100F30000E94040DA7019601261B370B480B590B85
:100F4000DA01C90181339547A105B10510F060E0D0
:100F500001C061E0809106010E94150EDDCEDF9296
:100F6000EF92FF920F931F93CF93DF93CDB7DEB72E
:100F70002C970FB6F894DEBF0FBECDBF00E010E097
:100F8000E12CF12CB801625B7D4FCE0107960E94E7
:100F9000A911CE0107960E94D703BC01CE0101968C
:100FA0000E946006B8016A5C7D4FCE0101960E94E6
:100FB000B912D82ECE0101960E94D810CE01079604
:100FC0000E94D810DD2019F08FEFE81AF80A0A5FA6
:100FD0001F4F08311105B1F6C7012C960FB6F894D2
:100FE000DEBF0FBECDBFDF91CF911F910F91FF905C
:100FF000EF90DF9008950F931F93CF93DF9300D06E
:1010000000D000D0CDB7DEB78C018430910509F552
:1010100060E171E086E692E00E94AA1068EE73E05B
:1010200080E090E00E94330D42E060E086E692E0CE
:101030000E94DC0B69E171E086E692E00E94AA1052
:1010400087E892E00E94980082E892E00E9498006F
:1010500048C065E271E0CE0101960E944611B801D8
:10106000CE0101960E940D126EE271E0CE01019652
:101070000E94EA1164E070E0CE0101960E943E12E7
:1010800067E171E0CE0101960E94EA11BE016F5F37
:101090007F4F86E692E00E949C1042E060E086E688
:1010A00092E00E94DC0B68EE73E080E090E00E942A
:1010B000330D63E371E086E692E00E94AA1068EEC9
:1010C00073E080E090E00E94330D86E692E00E949B
:1010D000D50B0E94AF070E94FB07CE0101960E942C
:1010E000D81026960FB6F894DEBF0FBECDBFDF91A5
:1010F000CF911F910F910895CF92DF92EF92FF92BF
:10110000CF93DF9386E692E00E94D50B0E94AF0753
:101110000E94FB07CAE0D0E00E94040D6B017C0135
:101120000E94040D6C157D058E059F0561F00E94DF
:10113000040D6C197D098E099F096033754781057F
:10114000910570F30FC00E94040DA7019601261BA4
:10115000370B480B590BDA01C90180339547A105BC
:10116000B105F0F22197C1F6DF91CF91FF90EF909A
:10117000DF90CF900895CF92EF920F9368E487E8C5
:1011800092E00E948F0069E482E892E00E948F0062
:10119000E2E0CE2EF3E0EF2E04E025E04BE06CE041
:1011A00086E692E00E94940C60E471E08EE492E0A6
:1011B0000E9446116CE471E084E592E00E944611C1
:1011C00064E771E08AE592E00E94461168EA71E006
:1011D00080E692E00E9446116BEF71E086E392E0B8
:1011E0000E9446116FEF71E08CE392E00E9446117D
:1011F00063E072E082E492E00E94461169E072E0EE
:1012000088E492E00F91EF90CF900C94461188E41F
:1012100092E00E94D81082E492E00E94D8108CE301
:1012200092E00E94D81086E392E00E94D81080E6F7
:1012300092E00E94D8108AE592E00E94D81084E5DE
:1012400092E00E94D8108EE492E00C94D810809125
:10125000BB0290E02091BC02821B9109089520916D
:10126000BC028091BB02281750F4E22FF0E0E35457
:10127000FD4F808190E02F5F2093BC0208958FEF97
:101280009FEF0895E091BC028091BB02E81730F413
:10129000F0E0E354FD4F808190E008958FEF9FEFE1
:1012A00008950895CF92DF92EF92FF920F931F93CC
:1012B000CF93DF937C01CB018A01209198022223F6
:1012C00089F0EB016B01C40ED51ECC15DD0569F06C
:1012D0006991D701ED91FC910190F081E02DC7015A
:1012E0000995F3CF642F0E94EA09C801DF91CF91DD
:1012F0001F910F91FF90EF90DF90CF900895CF93C3
:10130000DF931F92CDB7DEB7698320919802222325
:10131000D1F020919902203240F021E030E0FC0130
:101320003383228380E090E015C080919A02E82FF9
:10133000F0E0E556FD4F998190838F5F80939A028C
:101340008093990205C061E0CE0101960E94EA09EE
:1013500081E090E00F90DF91CF910895FC0113821E
:10136000128248EE53E060E070E044835583668368
:10137000778382E192E09183808308951092BC028A
:101380001092BB0210929A02109299020C94CC090E
:101390008CE892E00C94AE0910924A0381E08093AD
:1013A00048031092470361E082E10E94150E61E05C
:1013B00083E10E94150EE9EBF0E080818E7F80834F
:1013C00080818D7F808388E48093B80085E480935A
:1013D000BC000895613298F420914A03243089F4C6
:1013E0006093FF02FC0181E093E0DC012A2F281BBF
:1013F000261718F421912D93F9CF80E0089581E00C
:10140000089582E0089585ED8093BC008091BC0032
:1014100084FDFCCF10924A03089585EC8093BC00B4
:1014200010924A0308951F920F920FB60F92112443
:101430002F933F934F935F936F937F938F939F93DC
:10144000AF93BF93EF93FF938091B900887F80366D
:1014500009F49EC078F5883209F45DC090F48031BB
:1014600009F456C038F4882309F4F5C0883009F42B
:101470004FC0F5C0883109F44EC0803209F45FC016
:10148000EEC0803409F46AC058F4803309F457C0C0
:10149000883309F0E4C08093DD020E940D0ADFC0AA
:1014A000803509F44FC0883509F45DC0883409F0EF
:1014B000D6C0D3C0883909F4C4C0A8F4883709F469
:1014C00067C038F4883609F463C0803709F460C017
:1014D000C6C0883809F4B5C0803909F45FC08038C7
:1014E00009F0BDC05BC0803B09F483C038F4803A8A
:1014F00009F466C0883A09F47CC0B1C0803C09F4A4
:10150000A4C0883C09F4A1C0883B09F487C0A7C0E7
:101510008091490310C09091220380912103981774
:1015200070F5E091220381E08E0F80932203F0E0BA
:10153000ED5DFC4F80818093BB0085EC83C0809380
:10154000DD028BC0E091220381E08E0F80932203A5
:101550008091BB00F0E0ED5DFC4F80839091220311
:10156000809121036BC0E091220381E08E0F809374
:1015700022038091BB00F0E0ED5DFC4F8083809101
:10158000480381116AC081E08093470384EA5EC00A
:1015900083E080934A031092DE02CFCF8091DE0277
:1015A000803208F04EC0E091DE0281E08E0F809321
:1015B000DE028091BB00F0E0E152FD4F8083BDCFA1
:1015C0000E940D0A8091DE02803230F4E091DE024A
:1015D000F0E0E152FD4F10826091DE0270E0E09198
:1015E0004303F09144038FED92E009951092DE02DF
:1015F00036C084E080934A03109200031092FF02E9
:10160000E0914503F091460309958091FF02811115
:1016100005C081E08093FF0210920103E091000376
:1016200081E08E0F80930003F0E0EF5FFC4F80813C
:101630008093BB00909100038091FF02981708F4FB
:101640007CCF85E88093BC000AC085EC8093BC0009
:1016500010924A0304C01092DD020E94030AFF9117
:10166000EF91BF91AF919F918F917F916F915F911A
:101670004F913F912F910F900FBE0F901F90189593
:10168000CF93DF93EC0160E08E810E94150E81E024
:1016900090E00E946D0D61E08E810E94150E81E048
:1016A00090E00E946D0D60E08E810E94150E84E630
:1016B00090E0DF91CF910C946D0DEF92FF920F931C
:1016C0001F93CF93DF938C01C0E0D0E0E62EF12C86
:1016D000B7010C2E02C0759567950A94E2F7617008
:1016E000F801EC0FFD1F87810E94150E2196C43072
:1016F000D10571F7C801DF91CF911F910F91FF9034
:10170000EF900C94400BEF92FF920F931F93CF93A7
:10171000DF938C01C0E0D0E0E62EF12CB7010C2E57
:1017200002C0759567950A94E2F76170F801EC0FB5
:10173000FD1F87810E94150E2196C830D10571F7D3
:10174000C801DF91CF911F910F91FF90EF900C9402
:10175000400B1F93CF93DF93EC01162F642F8C81E6
:101760000E94150E8D818F3F19F060E00E94150ECA
:101770008F85612F84FF06C0CE01DF91CF911F912D
:101780000C94830B70E084E0759567958A95E1F77A
:10179000CE010E945D0B612FCE01DF91CF911F9191
:1017A0000C945D0B40E00C94A90B61E00E94D20BFD
:1017B00080ED97E00C946D0D443008F043E0FC019F
:1017C0002389421710F04FEF420FFC01E40FF11D87
:1017D0002489260F2068622F0C94D20BFC016089AB
:1017E000262F2460208B6C600C94D20B0F931F93D8
:1017F000CF93DF93EC01423018F08F8588608F879C
:101800004B8B1C8A80E48D8B6E8B70E0605C7F4F0D
:101810006F8B222329F0413019F48F8584608F87E4
:1018200061E08C810E94DC0D8D818F3F19F061E0B9
:101830000E94DC0D61E08E810E94DC0D00E010E072
:101840008F8584FF03C088E090E002C084E090E0D0
:101850000817190754F4FE01E00FF11F61E08781BA
:101860000E94DC0D0F5F1F4FEBCF80E593EC0E94D1
:101870006D0D60E08C810E94150E60E08E810E94EB
:10188000150E8D818F3F19F060E00E94150E6F8557
:1018900064FD1DC063E0CE010E945D0B84E991E10F
:1018A0000E946D0D63E0CE010E945D0B84E991E121
:1018B0000E946D0D63E0CE010E945D0B86E990E011
:1018C0000E946D0D62E0CE010E945D0B16C0606249
:1018D000CE010E94D20B84E991E10E946D0D6F85CB
:1018E0006062CE010E94D20B86E990E00E946D0DED
:1018F0006F856062CE010E94D20B6F856062CE015F
:101900000E94D20B84E0888BCE010E94EE0BCE01A8
:101910000E94D50B82E0898B66E0CE01DF91CF91EA
:101920001F910F910C94D20BCF92EF920F93FC0169
:101930001382128282E292E09183808364838FEF2C
:101940008583468327830087E186C28613861486B3
:1019500015861686178620E041E060E1CF010F91E1
:10196000EF90CF900C94F60B41E00E94A90B81E020
:1019700090E008951F920F920FB60F9211242F93AB
:101980003F938F939F93AF93BF9380914C0390911C
:101990004D03A0914E03B0914F0330914B0323E0D0
:1019A000230F2D3720F40196A11DB11D05C026E897
:1019B000230F0296A11DB11D20934B0380934C036E
:1019C00090934D03A0934E03B0934F038091500327
:1019D00090915103A0915203B09153030196A11D20
:1019E000B11D8093500390935103A0935203B09381
:1019F0005303BF91AF919F918F913F912F910F9082
:101A00000FBE0F901F9018952FB7F89460914C035C
:101A100070914D0380914E0390914F032FBF089515
:101A20003FB7F8948091500390915103A0915203D5
:101A3000B091530326B5A89B05C02F3F19F001961E
:101A4000A11DB11D3FBF6627782F892F9A2F620FE6
:101A5000711D811D911D42E0660F771F881F991F20
:101A60004A95D1F708958F929F92AF92BF92CF92ED
:101A7000DF92EF92FF926B017C010E94100D4B01EF
:101A80005C01C114D104E104F104F1F00E942013BF
:101A90000E94100D681979098A099B09683E7340F4
:101AA0008105910570F321E0C21AD108E108F1081F
:101AB00088EE880E83E0981EA11CB11CC114D104CD
:101AC000E104F10429F7DDCFFF90EF90DF90CF9094
:101AD000BF90AF909F908F9008958230910538F01D
:101AE000880F991F880F991F05970197F1F708959F
:101AF000789484B5826084BD84B5816084BD85B5E9
:101B0000826085BD85B5816085BDEEE6F0E08081AF
:101B100081608083E1E8F0E01082808182608083D0
:101B2000808181608083E0E8F0E080818160808353
:101B3000E1EBF0E0808184608083E0EBF0E0808185
:101B400081608083EAE7F0E0808184608083808127
:101B500082608083808181608083808180688083CF
:101B60001092C1000895833081F028F4813099F0FB
:101B70008230A1F008958730A9F08830B9F0843020
:101B8000D1F4809180008F7D03C0809180008F7799
:101B900080938000089584B58F7702C084B58F7DCF
:101BA00084BD08958091B0008F7703C08091B0000C
:101BB0008F7D8093B0000895CF93DF9390E0FC0178
:101BC000E458FF4F2491FC01E057FF4F8491882394
:101BD00049F190E0880F991FFC01E854FF4FA5914F
:101BE000B49182559F4FFC01C591D4919FB761116B
:101BF00008C0F8948C91209582238C93888182234D
:101C00000AC0623051F4F8948C91322F30958323BE
:101C10008C938881822B888304C0F8948C91822BCA
:101C20008C939FBFDF91CF9108950F931F93CF9314
:101C3000DF931F92CDB7DEB7282F30E0F901E859C6
:101C4000FF4F8491F901E458FF4F1491F901E057D7
:101C5000FF4F04910023C9F0882321F069830E947B
:101C6000B30D6981E02FF0E0EE0FFF1FE255FF4F4B
:101C7000A591B4919FB7F8948C91611103C0109510
:101C8000812301C0812B8C939FBF0F90DF91CF9157
:101C90001F910F910895CF93DF93282F30E0F90122
:101CA000E859FF4F8491F901E458FF4FD491F901AD
:101CB000E057FF4FC491CC2391F081110E94B30DE6
:101CC000EC2FF0E0EE0FFF1FEC55FF4FA591B49104
:101CD0002C912D2381E090E021F480E002C080E08F
:101CE00090E0DF91CF910895FC01818D228D90E0ED
:101CF000805C9F4F821B91098F7399270895FC0187
:101D0000918D828D981731F0828DE80FF11D858DB0
:101D100090E008958FEF9FEF0895FC01918D828DE3
:101D2000981761F0828DDF01A80FB11D5D968C912F
:101D3000928D9F5F9F73928F90E008958FEF9FEF3A
:101D4000089581E190E1892B49F080E090E0892BB2
:101D500029F00E94111081110C9400000895FC01DB
:101D6000848DDF01A80FB11DA35ABF4F2C91848D24
:101D700090E001968F739927848FA689B7892C9359
:101D8000A089B1898C9180648C93938D848D9813F4
:101D900006C00288F389E02D80818F7D80830895BD
:101DA000CF93DF93EC01888D8823C9F0EA89FB8902
:101DB000808185FD05C0A889B9898C9186FD0FC0F9
:101DC0000FB607FCF5CF808185FFF2CFA889B989CE
:101DD0008C9185FFEDCFCE010E94AF0EE7CFDF9152
:101DE000CF910895CF92DF92FF920F931F93CF93DD
:101DF000DF931F92CDB7DEB76C0181E0D601589614
:101E00008C9358975B969C915B975C968C915C97B2
:101E1000981307C05096ED91FC915197808185FDF4
:101E20002EC0F601038D10E00F5F1F4F0F731127B7
:101E3000F02EF601848DF81211C00FB607FCF9CF11
:101E4000D6015096ED91FC915197808185FFF1CF9D
:101E5000C60169830E94AF0E6981EBCF838DE80FC5
:101E6000F11DE35AFF4F6083D6015B960C935B979D
:101E70005296ED91FC915397808180620CC0D601FF
:101E80005696ED91FC91579760835096ED91FC9199
:101E9000519780818064808381E090E00F90DF9192
:101EA000CF911F910F91FF90DF90CF900895BF9237
:101EB000CF92DF92EF92FF92CF93DF93EC016A0112
:101EC0007B01B22EE889F98982E08083411581EE99
:101ED000580761057105A1F060E079E08DE390E0BD
:101EE000A70196010E94351321503109410951097A
:101EF0005695479537952795211580E1380798F035
:101F0000E889F989108260E874E88EE190E0A70121
:101F100096010E9435132150310941095109569506
:101F2000479537952795EC85FD853083EE85FF85B0
:101F30002083188EEC89FD89B082EA89FB89808133
:101F400080618083EA89FB89808188608083EA8957
:101F5000FB89808180688083EA89FB8980818F7D0D
:101F60008083DF91CF91FF90EF90DF90CF90BF9073
:101F700008951F920F920FB60F9211242F938F93F3
:101F80009F93EF93FF93E0916403F0916503808149
:101F9000E0916A03F0916B0382FD12C09081809101
:101FA0006D038F5F8F7320916E03821751F0E09164
:101FB0006D03F0E0EC5AFC4F958F80936D0301C0E8
:101FC0008081FF91EF919F918F912F910F900FBE84
:101FD0000F901F9018951F920F920FB60F92112419
:101FE0002F933F934F935F936F937F938F939F9321
:101FF000AF93BF93EF93FF9384E593E00E94AF0EFE
:10200000FF91EF91BF91AF919F918F917F916F91D0
:102010005F914F913F912F910F900FBE0F901F90A6
:10202000189584E593E00E94740E21E0892B09F451
:1020300020E0822F0895109257031092560388EEE5
:1020400093E0A0E0B0E08093580390935903A093ED
:102050005A03B0935B038AE292E090935503809316
:10206000540385EC90E0909361038093600384ECCB
:1020700090E0909363038093620380EC90E09093F0
:1020800065038093640381EC90E0909367038093F1
:10209000660382EC90E0909369038093680386EC7A
:1020A00090E090936B0380936A0310926D031092FB
:1020B0006E0310926F03109270030895CF92DF9217
:1020C000EF92FF920F931F93CF93DF937C016A01EE
:1020D000EB0100E010E00C151D0571F06991D701CE
:1020E000ED91FC910190F081E02DC7010995892BBC
:1020F00019F00F5F1F4FEFCFC801DF91CF911F91F4
:102100000F91FF90EF90DF90CF90089561157105CA
:1021100081F0DB010D900020E9F7AD01415051093C
:10212000461B570BDC01ED91FC910280F381E02D01
:10213000099480E090E00895DC01ED91FC91DB01D1
:1021400014964D915C9115976D917C910280F3816D
:10215000E02D09940C948610DC01ED91FC91019026
:10216000F081E02D0994FC01DB01118210821382C1
:102170001282158214828D919C9111979183808394
:1021800012968D919C9113979383828314968D91CF
:102190009C9115979583848311961C921E92139699
:1021A0001C921E92129715961C921E9214970895D7
:1021B000FC01808191810C942814CF93DF93EC0172
:1021C00088819981009711F00E9428141982188241
:1021D0001D821C821B821A82DF91CF9108950F937A
:1021E0001F93CF93DF93EC018B016F5F7F4F88814B
:1021F00099810E94B714009731F0998388831B83DB
:102200000A8381E001C080E0DF91CF911F910F919F
:102210000895CF93DF93EC0188819981892B29F070
:102220008A819B818617970760F4CE010E94EF1088
:10223000882341F08C819D81892B19F4E881F981F3
:10224000108281E0DF91CF910895EF92FF920F937A
:102250001F93CF93DF93EC017B018A01BA010E94A7
:102260000911811104C0CE010E94DD1007C01D8339
:102270000C83B701888199810E949315CE01DF916B
:10228000CF911F910F91FF90EF900895FC01118263
:10229000108213821282158214826115710559F021
:1022A000FB0101900020E9F7AF0141505109461BA5
:1022B000570B0C94251108950F931F93CF93DF9321
:1022C0008C01EB01FC0180819181009799F04281A2
:1022D00053812C813D814217530750F068817981E9
:1022E0000E9493158C819D81F8019583848313C08E
:1022F0000E94281488819981F801918380838A81C2
:102300009B81938382838C819D81958384831982B1
:1023100018821B821A821D821C82DF91CF911F912D
:102320000F910895CF93DF93EC01FB018617970778
:1023300061F0608171816115710529F044815581D9
:102340000E94251102C00E94DD10CE01DF91CF91C5
:102350000895FC0111821082138212821582148268
:102360000C949211CF93DF93EC018617970711F02D
:102370000E945C11CE01DF91CF910895EF92FF9200
:102380000F931F93CF93DF93EC017B010C811D8191
:102390006115710511F480E016C04115510591F0E9
:1023A000040F151FB8010E9409118823A1F3288189
:1023B00039818C819D81B701820F931F0E949315F3
:1023C0001D830C8381E0DF91CF911F910F91FF90CE
:1023D000EF9008956115710559F0FB0101900020FF
:1023E000E9F7AF0141505109461B570B0C94BE1140
:1023F00080E00895CF93DF9300D0CDB7DEB7698337
:102400001A8241E050E0BE016F5F7F4F0E94BE1113
:102410000F900F90DF91CF910895EF92FF920F935D
:102420001F93CF93DF93CDB7DEB728970FB6F894FD
:10243000DEBF0FBECDBF7C01CB014AE08E010F5F36
:102440001F4FB8010E94A915F80101900020E9F77B
:10245000AF0141505109401B510BB801C7010E9407
:10246000BE1128960FB6F894DEBF0FBECDBFDF9128
:10247000CF911F910F91FF90EF900895EF92FF92EF
:102480000F931F93CF93DF93CDB7DEB727970FB688
:10249000F894DEBF0FBECDBF7C01CB014AE08E01B8
:1024A0000F5F1F4FB8010E94B415F8010190002082
:1024B000E9F7AF0141505109401B510BB801C70169
:1024C0000E94BE1127960FB6F894DEBF0FBECDBF97
:1024D000DF91CF911F910F91FF90EF900895CF93CF
:1024E000DF93EC016115710569F0FB01019000209B
:1024F000E9F7AF0141505109461B570B0E94BE112D
:10250000811103C0CE010E94DD10CE01DF91CF9179
:102510000895CF93DF93DC01ED91FC91EB01A8814D
:10252000B981309711F01097C9F4109759F0EB0169
:102530002C813D81232B31F08C9190E091958195F8
:10254000910914C0309781F0DC0114968D919C9113
:102550001597892B49F0808190E008C0BD01CF011B
:10256000DF91CF910C948A1580E090E0DF91CF91BC
:102570000895FC0144815581FB0124813581421776
:10258000530741F40E94891221E0892B09F020E0D1
:10259000822F089580E00895FC0184819581681759
:1025A000790720F480819181009729F41092F1033A
:1025B00081EF93E00895860F971F0895CF93DF93DF
:1025C000EC01CB012C813D816217730710F5411599
:1025D0005105F9F0B901681B790B4617570708F444
:1025E000BA01E881F981261B370B3D832C83A901B1
:1025F000481B590B680F791F6E0F7F1F8E0F9F1F8F
:102600000E949A15E881F9818C819D81E80FF91F5C
:102610001082DF91CF9108954FEF5FEF0C94DE129F
:1026200008950E94780D0E9410130E94FD04C1EAD3
:10263000DEE00E947C082097E1F30E94A10EF9CF12
:10264000089597FB072E16F4009407D077FD09D064
:102650000E94761307FC05D03EF4909581959F4F1C
:102660000895709561957F4F0895A1E21A2EAA1BD7
:10267000BB1BFD010DC0AA1FBB1FEE1FFF1FA21732
:10268000B307E407F50720F0A21BB30BE40BF50B2F
:10269000661F771F881F991F1A9469F760957095B8
:1026A000809590959B01AC01BD01CF010895052E49
:1026B00097FB1EF400940E946E1357FD07D00E94F2
:1026C000351307FC03D04EF40C946E1350954095CF
:1026D000309521953F4F4F4F5F4F089590958095CE
:1026E000709561957F4F8F4F9F4F0895AA1BBB1B1D
:1026F00051E107C0AA1FBB1FA617B70710F0A61B02
:10270000B70B881F991F5A95A9F780959095BC0122
:10271000CD010895EE0FFF1F0590F491E02D09946F
:10272000CF93DF938230910510F482E090E0E09146
:10273000F403F091F50320E030E0A0E0B0E0309742
:1027400039F14081518148175907B8F048175907A6
:1027500071F482819381109729F013969C938E9344
:1027600012972CC09093F5038093F40327C0211592
:10277000310531F04217530718F0A901DB0101C000
:10278000EF019A01BD01DF010280F381E02DD7CF77
:1027900021153105F9F0281B390B2430310580F45F
:1027A0008A819B816115710521F0FB0193838283EE
:1027B00004C09093F5038093F403FE01329644C065
:1027C000FE01E20FF31F8193919322503109398367
:1027D00028833AC02091F2033091F303232B41F474
:1027E00020910201309103013093F3032093F2030F
:1027F00020910001309101012115310541F42DB7DF
:102800003EB74091040150910501241B350BE09126
:10281000F203F091F303E217F307A0F42E1B3F0B32
:102820002817390778F0AC014E5F5F4F2417350742
:1028300048F04E0F5F1F5093F3034093F2038193D0
:10284000919302C0E0E0F0E0CF01DF91CF910895D5
:10285000CF93DF93009709F487C0FC01329713826E
:102860001282C091F403D091F503209781F4208166
:102870003181280F391F8091F2039091F303821761
:10288000930779F5F093F303E093F2036DC0DE0153
:1028900020E030E0AE17BF0750F412964D915C91E6
:1028A00013979D014115510509F1DA01F3CFB38367
:1028B000A28340815181840F951F8A179B0771F471
:1028C0008D919C911197840F951F0296918380831F
:1028D00012968D919C9113979383828321153105D4
:1028E00029F4F093F503E093F4033EC0D901139665
:1028F000FC93EE9312974D915D91A40FB51FEA17CB
:10290000FB0779F480819181840F951F0296D9018C
:1029100011969C938E938281938113969C938E93B0
:102920001297E0E0F0E08A819B81009719F0FE01A8
:10293000EC01F9CFCE01029628813981820F931FD5
:102940002091F2033091F3032817390769F4309787
:1029500029F41092F5031092F40302C0138212823C
:10296000D093F303C093F203DF91CF910895A0E0D9
:10297000B0E0EDEBF4E10C94E215EC01CB01209713
:1029800019F40E949013B8C0FE01E60FF71F9E01D4
:1029900022503109E217F30708F4ACC0D9010D91B8
:1029A0001C91119706171707B8F00530110508F4A8
:1029B0009FC0A801445051094617570708F498C012
:1029C00002501109061B170B019311936D937C9311
:1029D000CF010E9428148CC05B01A01AB10A4E01DD
:1029E000800E911EA091F403B091F503612C712C1F
:1029F00060E070E0109709F449C0A815B905C9F561
:102A0000ED90FC901197670142E0C40ED11CCA14EE
:102A1000DB0478F147018A189B08640142E0C40E88
:102A2000D11C1296BC9012971396AC91B5E0CB16C0
:102A3000D10440F0B282A38391828082D9018D9328
:102A40009C9309C00E5F1F4F0E0D1F1DF9011183CE
:102A50000083EB2DFA2F6115710531F0DB01139620
:102A6000FC93EE93129744C0F093F503E093F403C4
:102A70003FC06D917C9111976616770608F43B0173
:102A8000BD0112960D90BC91A02DB4CF6091F203C0
:102A90007091F30368157905E9F468167906D0F4A6
:102AA00040910001509101014115510541F44DB78C
:102AB0005EB76091040170910501461B570BE41746
:102AC000F507C0F4F093F303E093F203F901918367
:102AD00080830EC00E9490137C01009759F0A801DA
:102AE000BE010E948115CE010E942814C70104C0B6
:102AF000CE0102C080E090E0CDB7DEB7EEE00C94EE
:102B0000FE15FB01DC0102C001900D9241505040C6
:102B1000D8F70895FB01DC018D9101908019011017
:102B2000D9F3990B0895FB01DC0101900D9200206F
:102B3000E1F70895FB01DC014150504048F001905D
:102B40000D920020C9F701C01D9241505040E0F79E
:102B50000895BB274A3031F4992322F4BDE29095C1
:102B600081959F4F0C94B515BB27FB015527AA27CC
:102B7000880F991FAA1FA41710F0A41B839550510A
:102B8000B9F7A05DAA3308F0A95DA193009779F782
:102B9000B111B1931192CB010C94CE15DC01FC0163
:102BA000672F71917723E1F7329704C07C916D9381
:102BB00070836291AE17BF07C8F308952F923F92BA
:102BC0004F925F926F927F928F929F92AF92BF923D
:102BD000CF92DF92EF92FF920F931F93CF93DF93E9
:102BE000CDB7DEB7CA1BDB0B0FB6F894DEBF0FBE46
:102BF000CDBF09942A88398848885F846E847D8493
:102C00008C849B84AA84B984C884DF80EE80FD8094
:102C10000C811B81AA81B981CE0FD11D0FB6F8940A
:102C2000DEBF0FBECDBFED01089510E0C8ECD0E0CF
:102C300004C0FE010E948C132296CA3CD107C9F73A
:042C4000F894FFCF36
:102C44000000F6038000060007002E2E2E3F3A00F7
:102C5400596F752077696E2100436F64653A20537C
:102C64005041524500596F7520676F742000206FE2
:102C740066200054727920616761696E2E2E2E00E1
:102C84005175657374696F6E20313F0051756573BA
:102C940074696F6E203220697320612074776F200D
:102CA4006C696E65206C6F6E6720717565737469ED
:102CB4006F6E3F005175657374696F6E20332069C0
:102CC4007320776179206C6F6E6765722061742060
:102CD40074687265652077686F6C65206C696E65D1
:102CE40073206C6F6E673F005175657374696F6E06
:102CF400203420697320736F206C6F6E67207468B2
:102D040061742069742061637475616C6C79206EE0
:102D14006565647320746F206265206375746F66E3
:102D24006620612062697420746F20626520746873
:102D3400726565206C696E65733F006F6E65007423
:102D4400776F00746872656500666F7572000000C5
:102D540000007F09520927092F094209510900007F
:102D64000000B40C5E1000000000F20E5E10740E41
:062D74008D0E7F0ED00E53
:107E0000112484B714BE81FFF0D085E080938100F7
:107E100082E08093C00088E18093C10086E0809377
:107E2000C20080E18093C4008EE0C9D0259A86E02C
:107E300020E33CEF91E0309385002093840096BBD3
:107E4000B09BFECF1D9AA8958150A9F7CC24DD24C4
:107E500088248394B5E0AB2EA1E19A2EF3E0BF2EE7
:107E6000A2D0813461F49FD0082FAFD0023811F036
:107E7000013811F484E001C083E08DD089C08234E0
:107E800011F484E103C0853419F485E0A6D080C0E4
:107E9000853579F488D0E82EFF2485D0082F10E0AE
:107EA000102F00270E291F29000F111F8ED06801E7
:107EB0006FC0863521F484E090D080E0DECF843638
:107EC00009F040C070D06FD0082F6DD080E0C81688
:107ED00080E7D80618F4F601B7BEE895C0E0D1E017
:107EE00062D089930C17E1F7F0E0CF16F0E7DF06D8
:107EF00018F0F601B7BEE89568D007B600FCFDCFD4
:107F0000A601A0E0B1E02C9130E011968C91119780
:107F100090E0982F8827822B932B1296FA010C0160
:107F200087BEE89511244E5F5F4FF1E0A038BF0790
:107F300051F7F601A7BEE89507B600FCFDCF97BE46
:107F4000E89526C08437B1F42ED02DD0F82E2BD052
:107F50003CD0F601EF2C8F010F5F1F4F84911BD097
:107F6000EA94F801C1F70894C11CD11CFA94CF0C13
:107F7000D11C0EC0853739F428D08EE10CD085E9AC
:107F80000AD08FE07ACF813511F488E018D01DD067
:107F900080E101D065CF982F8091C00085FFFCCF94
:107FA0009093C60008958091C00087FFFCCF809118
:107FB000C00084FD01C0A8958091C6000895E0E648
:107FC000F0E098E1908380830895EDDF803219F02E
:107FD00088E0F5DFFFCF84E1DECF1F93182FE3DFCA
:107FE0001150E9F7F2DF1F91089580E0E8DFEE27F6
:047FF000FF270994CA
:027FFE00040479
:0400000300007E007B
:00000001FF
